{
  "_format": "hh3-artifact-1",
  "contractName": "FeedFaceMultisend",
  "sourceName": "contracts/FeedFaceMultisend.sol",
  "abi": [
    {
      "inputs": [],
      "name": "EthRefundFailed",
      "type": "error"
    },
    {
      "inputs": [],
      "name": "EthTransferFailed",
      "type": "error"
    },
    {
      "inputs": [
        {
          "internalType": "address",
          "name": "token",
          "type": "address"
        }
      ],
      "name": "SafeERC20FailedOperation",
      "type": "error"
    },
    {
      "inputs": [
        {
          "components": [
            {
              "internalType": "address",
              "name": "to",
              "type": "address"
            },
            {
              "internalType": "uint256",
              "name": "amount",
              "type": "uint256"
            }
          ],
          "internalType": "struct FeedFaceMultisend.EthTransfer[]",
          "name": "ethTransfers",
          "type": "tuple[]"
        },
        {
          "components": [
            {
              "internalType": "address",
              "name": "token",
              "type": "address"
            },
            {
              "internalType": "address",
              "name": "to",
              "type": "address"
            },
            {
              "internalType": "uint256",
              "name": "amount",
              "type": "uint256"
            }
          ],
          "internalType": "struct FeedFaceMultisend.TokenTransfer[]",
          "name": "tokenTransfers",
          "type": "tuple[]"
        },
        {
          "components": [
            {
              "internalType": "address",
              "name": "token",
              "type": "address"
            },
            {
              "internalType": "uint256",
              "name": "value",
              "type": "uint256"
            },
            {
              "internalType": "uint256",
              "name": "deadline",
              "type": "uint256"
            },
            {
              "internalType": "uint8",
              "name": "v",
              "type": "uint8"
            },
            {
              "internalType": "bytes32",
              "name": "r",
              "type": "bytes32"
            },
            {
              "internalType": "bytes32",
              "name": "s",
              "type": "bytes32"
            }
          ],
          "internalType": "struct FeedFaceMultisend.Permit[]",
          "name": "permits",
          "type": "tuple[]"
        }
      ],
      "name": "disperse",
      "outputs": [],
      "stateMutability": "payable",
      "type": "function"
    }
  ],
  "bytecode": "0x6080806040523460155761060c908161001b8239f35b600080fdfe6080604052600436101561001257600080fd5b60003560e01c63caa83ddd1461002757600080fd5b60607ffffffffffffffffffffffffffffffffffffffffffffffffffffffffffffffffc3601126104835760043567ffffffffffffffff8111610483573660238201121561048357806004013567ffffffffffffffff8111610483576024820191602436918360061b0101116104835760243567ffffffffffffffff811161048357366023820112156104835780600401359167ffffffffffffffff831161048357602482019160243691606086020101116104835760443567ffffffffffffffff811161048357366023820112156104835780600401359067ffffffffffffffff82116104835760248101906024369160c085020101116104835760009592955b82811061036a575050506000936000915b8183106102e75750505060005b8281106101d2578380341161015757005b34033481116101a357600080808093335af1610171610568565b501561017957005b7f514ff85c0000000000000000000000000000000000000000000000000000000060005260046000fd5b7f4e487b7100000000000000000000000000000000000000000000000000000000600052601160045260246000fd5b73ffffffffffffffffffffffffffffffffffffffff6101fa6101f58386866105c6565b6104c7565b16610211602061020b8487876105c6565b016104c7565b602060406102208588886105c6565b013560009073ffffffffffffffffffffffffffffffffffffffff604051947f23b872dd000000000000000000000000000000000000000000000000000000008452336004521660245260445260648180865af1906001600051148216156102c5575b6040526000606052156102985750600101610146565b7f5274afe70000000000000000000000000000000000000000000000000000000060005260045260246000fd5b9060018115166102dd57823b15153d15161690610282565b503d6000823e3d90fd5b90919460008080806102fd6101f58b8989610558565b602061030a8c8a8a610558565b0135905af1610317610568565b501561034057602061032a878585610558565b013581018091116101a357946001019190610139565b7f6d963f880000000000000000000000000000000000000000000000000000000060005260046000fd5b73ffffffffffffffffffffffffffffffffffffffff6103906101f58386869b989b610488565b1690602061039f828686610488565b01359160406103af838787610488565b013560606103be848888610488565b01359360ff85168095036104835760806103d9858989610488565b01359060a06103e9868a8a610488565b013591843b156104835760009460e4938692604051998a9788967fd505accf00000000000000000000000000000000000000000000000000000000885233600489015230602489015260448801526064870152608486015260a485015260c48401525af191821561047757600192610466575b5001959295610128565b6000610471916104e8565b3861045c565b6040513d6000823e3d90fd5b600080fd5b91908110156104985760c0020190565b7f4e487b7100000000000000000000000000000000000000000000000000000000600052603260045260246000fd5b3573ffffffffffffffffffffffffffffffffffffffff811681036104835790565b90601f7fffffffffffffffffffffffffffffffffffffffffffffffffffffffffffffffe0910116810190811067ffffffffffffffff82111761052957604052565b7f4e487b7100000000000000000000000000000000000000000000000000000000600052604160045260246000fd5b91908110156104985760061b0190565b3d156105c1573d9067ffffffffffffffff821161052957604051916105b560207fffffffffffffffffffffffffffffffffffffffffffffffffffffffffffffffe0601f84011601846104e8565b82523d6000602084013e565b606090565b919081101561049857606002019056fea26469706673582212205f8dde6d9d587f6a603f2d1c7d5ab65bec6198483c54f9b42ac7c4cc2452d3e164736f6c634300081c0033",
  "linkReferences": {},
  "deployedLinkReferences": {},
  "immutableReferences": {},
  "inputSourceName": "project/contracts/FeedFaceMultisend.sol",
  "buildInfoId": "solc-0_8_28-abe4810382e82c516cf15aac3116578c45f49dcf"
}