{
  "_format": "hh3-artifact-1",
  "contractName": "FeedFaceDisperse",
  "sourceName": "contracts/FeedFaceDisperse.sol",
  "abi": [
    {
      "inputs": [],
      "name": "EthRefundFailed",
      "type": "error"
    },
    {
      "inputs": [],
      "name": "EthTransferFailed",
      "type": "error"
    },
    {
      "inputs": [
        {
          "internalType": "address",
          "name": "token",
          "type": "address"
        }
      ],
      "name": "SafeERC20FailedOperation",
      "type": "error"
    },
    {
      "inputs": [
        {
          "components": [
            {
              "internalType": "address",
              "name": "to",
              "type": "address"
            },
            {
              "internalType": "uint256",
              "name": "amount",
              "type": "uint256"
            }
          ],
          "internalType": "struct FeedFaceDisperse.EthTransfer[]",
          "name": "ethTransfers",
          "type": "tuple[]"
        },
        {
          "components": [
            {
              "internalType": "address",
              "name": "token",
              "type": "address"
            },
            {
              "internalType": "address",
              "name": "to",
              "type": "address"
            },
            {
              "internalType": "uint256",
              "name": "amount",
              "type": "uint256"
            }
          ],
          "internalType": "struct FeedFaceDisperse.TokenTransfer[]",
          "name": "tokenTransfers",
          "type": "tuple[]"
        },
        {
          "components": [
            {
              "internalType": "address",
              "name": "token",
              "type": "address"
            },
            {
              "internalType": "uint256",
              "name": "value",
              "type": "uint256"
            },
            {
              "internalType": "uint256",
              "name": "deadline",
              "type": "uint256"
            },
            {
              "internalType": "uint8",
              "name": "v",
              "type": "uint8"
            },
            {
              "internalType": "bytes32",
              "name": "r",
              "type": "bytes32"
            },
            {
              "internalType": "bytes32",
              "name": "s",
              "type": "bytes32"
            }
          ],
          "internalType": "struct FeedFaceDisperse.Permit[]",
          "name": "permits",
          "type": "tuple[]"
        }
      ],
      "name": "disperse",
      "outputs": [],
      "stateMutability": "payable",
      "type": "function"
    }
  ],
  "bytecode": "0x608080604052346015576105f8908161001b8239f35b600080fdfe6080604052600436101561001257600080fd5b60003560e01c63caa83ddd1461002757600080fd5b60607ffffffffffffffffffffffffffffffffffffffffffffffffffffffffffffffffc36011261046f5760043567ffffffffffffffff811161046f573660238201121561046f57806004013567ffffffffffffffff811161046f576024820191602436918360061b01011161046f5760243567ffffffffffffffff811161046f573660238201121561046f5780600401359167ffffffffffffffff831161046f576024820191602436916060860201011161046f5760443567ffffffffffffffff811161046f573660238201121561046f57806004013567ffffffffffffffff811161046f5760248201916024369160c0840201011161046f5760009592955b818110610369575050506000936000915b8183106102e65750505060005b8281106101d1578380341161015657005b34033481116101a257600080808093335af1610170610554565b501561017857005b7f514ff85c0000000000000000000000000000000000000000000000000000000060005260046000fd5b7f4e487b7100000000000000000000000000000000000000000000000000000000600052601160045260246000fd5b73ffffffffffffffffffffffffffffffffffffffff6101f96101f48386866105b2565b6104b3565b16610210602061020a8487876105b2565b016104b3565b6020604061021f8588886105b2565b013560009073ffffffffffffffffffffffffffffffffffffffff604051947f23b872dd000000000000000000000000000000000000000000000000000000008452336004521660245260445260648180865af1906001600051148216156102c4575b6040526000606052156102975750600101610145565b7f5274afe70000000000000000000000000000000000000000000000000000000060005260045260246000fd5b9060018115166102dc57823b15153d15161690610281565b503d6000823e3d90fd5b90919460008080806102fc6101f48b8989610544565b60206103098c8a8a610544565b0135905af1610316610554565b501561033f576020610329878585610544565b013581018091116101a257946001019190610138565b7f6d963f880000000000000000000000000000000000000000000000000000000060005260046000fd5b73ffffffffffffffffffffffffffffffffffffffff61038f6101f48385879b989b610474565b1690602061039e828587610474565b01359160406103ae838688610474565b01359060606103be848789610474565b01359160ff831680930361046f5760806103d985888a610474565b01359460a06103e986898b610474565b013590833b1561046f576000809460e49360019960405198899788967fd505accf00000000000000000000000000000000000000000000000000000000885233600489015230602489015260448801526064870152608486015260a485015260c48401525af161045e575b5001959295610127565b6000610469916104d4565b38610454565b600080fd5b91908110156104845760c0020190565b7f4e487b7100000000000000000000000000000000000000000000000000000000600052603260045260246000fd5b3573ffffffffffffffffffffffffffffffffffffffff8116810361046f5790565b90601f7fffffffffffffffffffffffffffffffffffffffffffffffffffffffffffffffe0910116810190811067ffffffffffffffff82111761051557604052565b7f4e487b7100000000000000000000000000000000000000000000000000000000600052604160045260246000fd5b91908110156104845760061b0190565b3d156105ad573d9067ffffffffffffffff821161051557604051916105a160207fffffffffffffffffffffffffffffffffffffffffffffffffffffffffffffffe0601f84011601846104d4565b82523d6000602084013e565b606090565b919081101561048457606002019056fea26469706673582212209f96c8ffb6e8066d38219ba684de92b00d32838b2e2883dbf4ee42b67474e10364736f6c634300081c0033",
  "linkReferences": {},
  "deployedLinkReferences": {},
  "immutableReferences": {},
  "inputSourceName": "project/contracts/FeedFaceDisperse.sol",
  "buildInfoId": "solc-0_8_28-3a4bef785c368a66346db8b8fa09ef8e25532437"
}